{
    "contractName": "PersonalInfo",
    "abi": [
        {
            "inputs": [
                {
                    "internalType": "string",
                    "name": "name",
                    "type": "string"
                },
                {
                    "internalType": "uint256",
                    "name": "phone_number",
                    "type": "uint256"
                },
                {
                    "internalType": "string",
                    "name": "residence",
                    "type": "string"
                }
            ],
            "name": "create_person",
            "outputs": [],
            "stateMutability": "nonpayable",
            "type": "function"
        },
        {
            "inputs": [
                {
                    "internalType": "string",
                    "name": "name",
                    "type": "string"
                }
            ],
            "name": "delete_person",
            "outputs": [],
            "stateMutability": "nonpayable",
            "type": "function"
        },
        {
            "inputs": [
                {
                    "internalType": "string",
                    "name": "name",
                    "type": "string"
                }
            ],
            "name": "get_person_info",
            "outputs": [
                {
                    "components": [
                        {
                            "internalType": "string",
                            "name": "name",
                            "type": "string"
                        },
                        {
                            "internalType": "uint256",
                            "name": "phone_number",
                            "type": "uint256"
                        },
                        {
                            "components": [
                                {
                                    "internalType": "string",
                                    "name": "location",
                                    "type": "string"
                                }
                            ],
                            "internalType": "struct PersonalInfo.HouseAddress",
                            "name": "residence",
                            "type": "tuple"
                        }
                    ],
                    "internalType": "struct PersonalInfo.Person",
                    "name": "",
                    "type": "tuple"
                }
            ],
            "stateMutability": "view",
            "type": "function"
        },
        {
            "inputs": [
                {
                    "internalType": "string",
                    "name": "",
                    "type": "string"
                }
            ],
            "name": "name_to_person",
            "outputs": [
                {
                    "internalType": "string",
                    "name": "name",
                    "type": "string"
                },
                {
                    "internalType": "uint256",
                    "name": "phone_number",
                    "type": "uint256"
                },
                {
                    "components": [
                        {
                            "internalType": "string",
                            "name": "location",
                            "type": "string"
                        }
                    ],
                    "internalType": "struct PersonalInfo.HouseAddress",
                    "name": "residence",
                    "type": "tuple"
                }
            ],
            "stateMutability": "view",
            "type": "function"
        },
        {
            "inputs": [
                {
                    "internalType": "uint256",
                    "name": "",
                    "type": "uint256"
                }
            ],
            "name": "people",
            "outputs": [
                {
                    "internalType": "string",
                    "name": "name",
                    "type": "string"
                },
                {
                    "internalType": "uint256",
                    "name": "phone_number",
                    "type": "uint256"
                },
                {
                    "components": [
                        {
                            "internalType": "string",
                            "name": "location",
                            "type": "string"
                        }
                    ],
                    "internalType": "struct PersonalInfo.HouseAddress",
                    "name": "residence",
                    "type": "tuple"
                }
            ],
            "stateMutability": "view",
            "type": "function"
        },
        {
            "inputs": [
                {
                    "internalType": "string",
                    "name": "",
                    "type": "string"
                }
            ],
            "name": "person_exists",
            "outputs": [
                {
                    "internalType": "bool",
                    "name": "",
                    "type": "bool"
                }
            ],
            "stateMutability": "view",
            "type": "function"
        }
    ],
    "bytecode": "608060405234801561001057600080fd5b50610b32806100206000396000f3fe608060405234801561001057600080fd5b50600436106100625760003560e01c806345d2589a14610067578063643bf4eb1461009057806370b791a0146100b25780639a2894f7146100c75780639e7a13ad14610105578063ffee35af14610118575b600080fd5b61007a6100753660046108da565b61012b565b6040516100879190610a24565b60405180910390f35b6100a361009e3660046108da565b61031b565b604051610087939291906109e5565b6100c56100c03660046108da565b61046c565b005b6100f56100d53660046108da565b805160208183018101805160028252928201919093012091525460ff1681565b6040519015158152602001610087565b6100a3610113366004610984565b61054c565b6100c5610126366004610917565b61057f565b610133610743565b60028260405161014391906109c9565b9081526040519081900360200190205460ff166101a75760405162461bcd60e51b815260206004820152601b60248201527f5468697320506572736f6e20446f65736e27742045786973747321000000000060448201526064015b60405180910390fd5b60006001836040516101b991906109c9565b90815260200160405180910390206040518060600160405290816000820180546101e290610aab565b80601f016020809104026020016040519081016040528092919081815260200182805461020e90610aab565b801561025b5780601f106102305761010080835404028352916020019161025b565b820191906000526020600020905b81548152906001019060200180831161023e57829003601f168201915b50505050508152602001600182015481526020016002820160405180602001604052908160008201805461028e90610aab565b80601f01602080910402602001604051908101604052809291908181526020018280546102ba90610aab565b80156103075780601f106102dc57610100808354040283529160200191610307565b820191906000526020600020905b8154815290600101906020018083116102ea57829003601f168201915b505050919092525050509052509392505050565b805160208183018101805160018252928201919093012091528054819061034190610aab565b80601f016020809104026020016040519081016040528092919081815260200182805461036d90610aab565b80156103ba5780601f1061038f576101008083540402835291602001916103ba565b820191906000526020600020905b81548152906001019060200180831161039d57829003601f168201915b505050505090806001015490806002016040518060200160405290816000820180546103e590610aab565b80601f016020809104026020016040519081016040528092919081815260200182805461041190610aab565b801561045e5780601f106104335761010080835404028352916020019161045e565b820191906000526020600020905b81548152906001019060200180831161044157829003601f168201915b505050505081525050905083565b60028160405161047c91906109c9565b9081526040519081900360200190205460ff166104db5760405162461bcd60e51b815260206004820152601b60248201527f5468697320506572736f6e20446f65736e277420457869737473210000000000604482015260640161019e565b6001816040516104eb91906109c9565b90815260405190819003602001902060006105068282610777565b600060018301819055600283019061051e8282610777565b5050505060028160405161053291906109c9565b908152604051908190036020019020805460ff1916905550565b6000818154811061055c57600080fd5b906000526020600020906003020160009150905080600001805461034190610aab565b60028360405161058f91906109c9565b9081526040519081900360200190205460ff16156106015760405162461bcd60e51b815260206004820152602960248201527f4120557365722057697468205468697320557365726e616d6520416c726561646044820152683c9022bc34b9ba399760b91b606482015260840161019e565b604080516020808201835283825282516060810184528681528082018690529283018290526000805460018101825590805283518051939493849360039093027f290decd9548b62a8d60345a988386fc84ba6bc95484008f6362f93160ef3e56301926106729284929101906107b4565b5060208281015160018301556040830151805180519192600285019261069b92849201906107b4565b5050505050806001866040516106b191906109c9565b908152602001604051809103902060008201518160000190805190602001906106db9291906107b4565b5060208281015160018301556040830151805180519192600285019261070492849201906107b4565b505050905050600160028660405161071c91906109c9565b908152604051908190036020019020805491151560ff199092169190911790555050505050565b604051806060016040528060608152602001600081526020016107726040518060200160405280606081525090565b905290565b50805461078390610aab565b6000825580601f10610793575050565b601f0160209004906000526020600020908101906107b19190610838565b50565b8280546107c090610aab565b90600052602060002090601f0160209004810192826107e25760008555610828565b82601f106107fb57805160ff1916838001178555610828565b82800160010185558215610828579182015b8281111561082857825182559160200191906001019061080d565b50610834929150610838565b5090565b5b808211156108345760008155600101610839565b600082601f83011261085e57600080fd5b813567ffffffffffffffff8082111561087957610879610ae6565b604051601f8301601f19908116603f011681019082821181831017156108a1576108a1610ae6565b816040528381528660208588010111156108ba57600080fd5b836020870160208301376000602085830101528094505050505092915050565b6000602082840312156108ec57600080fd5b813567ffffffffffffffff81111561090357600080fd5b61090f8482850161084d565b949350505050565b60008060006060848603121561092c57600080fd5b833567ffffffffffffffff8082111561094457600080fd5b6109508783880161084d565b945060208601359350604086013591508082111561096d57600080fd5b5061097a8682870161084d565b9150509250925092565b60006020828403121561099657600080fd5b5035919050565b600081518084526109b5816020860160208601610a7b565b601f01601f19169290920160200192915050565b600082516109db818460208701610a7b565b9190910192915050565b6060815260006109f8606083018661099d565b8460208401528281036040840152835160208252610a19602083018261099d565b979650505050505050565b602081526000825160606020840152610a40608084018261099d565b9050602084015160408401526040840151601f198483030160608501528051905060208252610a72602083018261099d565b95945050505050565b60005b83811015610a96578181015183820152602001610a7e565b83811115610aa5576000848401525b50505050565b600181811c90821680610abf57607f821691505b60208210811415610ae057634e487b7160e01b600052602260045260246000fd5b50919050565b634e487b7160e01b600052604160045260246000fdfea2646970667358221220fb8ccdbd9b73d65e083657dfa35ec66082ceeb0b54ee971c9daea4239a3ead1f64736f6c63430008070033",
    "sourcePath": "c:/Users/techn/OneDrive/Desktop/blockchain_projects/web3_projects/web3_personal_info_smart_contract/personal_info.sol",
    "compiler": {
        "name": "solc",
        "version": "0.8.7+commit.e28d00a7"
    },
    "functionHashes": {
        "create_person(string,uint256,string)": "ffee35af",
        "delete_person(string)": "70b791a0",
        "get_person_info(string)": "45d2589a",
        "name_to_person(string)": "643bf4eb",
        "people(uint256)": "9e7a13ad",
        "person_exists(string)": "9a2894f7"
    },
    "gasEstimates": {
        "creation": {
            "codeDepositCost": "573200",
            "executionCost": "606",
            "totalCost": "573806"
        },
        "external": {
            "create_person(string,uint256,string)": "infinite",
            "delete_person(string)": "infinite",
            "get_person_info(string)": "infinite",
            "name_to_person(string)": "infinite",
            "people(uint256)": "infinite",
            "person_exists(string)": "infinite"
        }
    }
}